:020000000D28C9
:10000800DE00030E8312AC000408AD000A08AE003F
:1000180027280E287220A0007320A1007420A200B7
:100028007520A3007620A4007720A5007820A600DC
:100038007920A7007A20A8007B20A9007C20AA00AC
:10004800B00183017D280B1D2A282B284B28063058
:1000580081000B110130AB002B08B0070A303006C5
:10006800031D372838284B28B0012A08203E840071
:100078008313000885002A08031D432844284728BD
:1000880085168B124B28FF30AB002B08AA072E08C9
:100098008A002D0884002C0E8300DE0E5E0E0900F7
:1000A80083169F0183129F010730990083169901D7
:1000B80008308500073081000630831281008501F1
:1000C80008008312851969286A287128DF30AF0073
:1000D8002F0885050930AA008B1608000034013462
:1000E800023403340434053406340734103411342C
:1000F80009345420A0308B000B11652081280D286D
:02400E009431EB
:00000001FF
